:100000000C9462000C948A000C948A000C948A0070
:100010000C948A000C948A000C948A000C948A0038
:100020000C948A000C948A000C948A000C948A0028
:100030000C948A000C948A000C948A000C948A0018
:100040000C94D4020C948A000C94A2020C947C02AE
:100050000C948A000C948A000C948A000C948A00F8
:100060000C948A000C948A000000000024002700F1
:100070002A0000000000250028002B0000000000DE
:1000800023002600290004040404040404040202DA
:100090000202020203030303030301020408102007
:1000A0004080010204081020010204081020000012
:1000B0000008000201000003040700000000000027
:1000C0000000320411241FBECFEFD8E0DEBFCDBF49
:1000D00011E0A0E0B1E0EEECF8E002C005900D9276
:1000E000A432B107D9F721E0A4E2B1E001C01D922A
:1000F000AE3CB207E1F710E0C2E6D0E004C02197C1
:10010000FE010E945F04C136D107C9F70E941E0399
:100110000C9465040C940000AF92BF92CF92DF92D2
:10012000EF92FF920F931F93CF93DF936C017B01AC
:100130008B01040F151FEB015E01AE18BF08C0173D
:10014000D10759F06991D601ED91FC910190F081B0
:10015000E02DC6010995892B79F7C501DF91CF9173
:100160001F910F91FF90EF90DF90CF90BF90AF90D5
:100170000895FC01538D448D252F30E0842F90E0AD
:10018000821B930B541710F0CF9608950197089592
:10019000FC01918D828D981761F0A28DAE0FBF2F5B
:1001A000B11D5D968C91928D9F5F9F73928F90E0B1
:1001B00008958FEF9FEF0895FC01918D828D981720
:1001C00031F0828DE80FF11D858D90E008958FEF5D
:1001D0009FEF0895FC01918D228D892F90E0805C26
:1001E0009F4F821B91098F739927089581E391E0B6
:1001F0000E94EA0021E0892B09F420E0822F089573
:1002000080E090E0892B29F00E94F60081110C9487
:1002100000000895FC01A48DA80FB92FB11DA35AA9
:10022000BF4F2C91848D90E001968F739927848F16
:10023000A689B7892C93A089B1898C918370806439
:100240008C93938D848D981306C00288F389E02DDA
:1002500080818F7D80830895EF92FF920F931F938B
:10026000CF93DF93EC0181E0888F9B8D8C8D981369
:100270001AC0E889F989808185FF15C09FB7F89475
:10028000EE89FF896083E889F989808183708064C1
:1002900080839FBF81E090E0DF91CF911F910F910C
:1002A000FF90EF900895F62E0B8D10E00F5F1F4F1B
:1002B0000F731127E02E8C8D8E110CC00FB607FC2A
:1002C000FACFE889F989808185FFF5CFCE010E94B8
:1002D0000A01F1CFEB8DEC0FFD2FF11DE35AFF4F1B
:1002E000F0829FB7F8940B8FEA89FB898081806246
:1002F000CFCFCF93DF93EC01888D8823B9F0AA8903
:10030000BB89E889F9898C9185FD03C0808186FDD0
:100310000DC00FB607FCF7CF8C9185FFF2CF80811F
:1003200085FFEDCFCE010E940A01E9CFDF91CF9189
:100330000895833081F028F4813099F08230A9F05B
:1003400008958730A9F08830C9F08430B1F48091E5
:1003500080008F7D03C0809180008F778093800024
:10036000089584B58F7784BD089584B58F7DFBCFC4
:100370008091B0008F778093B00008958091B00095
:100380008F7DF9CFCF93DF93282F30E0F901E2552D
:10039000FF4F8491F901E656FF4FD491F901EA57D6
:1003A000FF4FC491CC23A1F081110E949901EC2F41
:1003B000F0E0EE0FFF1FE458FF4FA591B491EC91D0
:1003C000ED2381E090E009F480E0DF91CF91089582
:1003D00080E090E0FACF1F93CF93DF93282F30E097
:1003E000F901E255FF4F8491F901E656FF4FD49190
:1003F000F901EA57FF4FC491CC23A9F0162F8111C0
:100400000E949901EC2FF0E0EE0FFF1FEE58FF4F16
:10041000A591B4918FB7F894EC91111108C0D095C3
:10042000DE23DC938FBFDF91CF911F910895DE2BE8
:10043000F8CFCF93DF9390E0FC01E656FF4F249175
:100440008A579F4FFC0184918823D1F090E0880F58
:10045000991FFC01E859FF4FA591B491FC01EE589A
:10046000FF4FC591D49161110EC09FB7F8948C9144
:10047000E22FE0958E238C932881E223E8839FBFAF
:10048000DF91CF9108958FB7F894EC91E22BEC9324
:100490008FBFF6CF3FB7F8948091290190912A0140
:1004A000A0912B01B0912C0126B5A89B05C02F3F30
:1004B00019F00196A11DB11D3FBFBA2FA92F982F8A
:1004C0008827BC01CD01620F711D811D911D42E085
:1004D000660F771F881F991F4A95D1F70895FC0171
:1004E00001900020E9F73197AF01481B590BBC017F
:1004F00081E391E00C948C001F920F920FB60F9243
:1005000011242F933F934F935F936F937F938F9318
:100510009F93AF93BF93EF93FF9381E391E00E948A
:100520000A01FF91EF91BF91AF919F918F917F91C0
:100530006F915F914F913F912F910F900FBE0F9050
:100540001F9018951F920F920FB60F9211242F93A0
:100550008F939F93EF93FF93E0914101F0914201BC
:100560008081E0914701F091480182FD1BC090819C
:1005700080914A018F5F8F7320914B01821741F068
:10058000E0914A01F0E0EF5CFE4F958F80934A01C5
:10059000FF91EF919F918F912F910F900FBE0F9030
:1005A0001F9018958081F4CF1F920F920FB60F9273
:1005B00011242F933F938F939F93AF93BF93809179
:1005C000250190912601A0912701B0912801309139
:1005D000240123E0230F2D3758F50196A11DB11DED
:1005E000209324018093250190932601A093270155
:1005F000B09328018091290190912A01A0912B01AB
:10060000B0912C010196A11DB11D809329019093F9
:100610002A01A0932B01B0932C01BF91AF919F9120
:100620008F913F912F910F900FBE0F901F901895B3
:1006300026E8230F0296A11DB11DD2CF789484B570
:10064000826084BD84B5816084BD85B5826085BDCE
:1006500085B5816085BD80916E00816080936E005C
:10066000109281008091810082608093810080914E
:1006700081008160809381008091800081608093FF
:1006800080008091B10084608093B1008091B000BF
:1006900081608093B00080917A00846080937A00BA
:1006A00080917A00826080937A0080917A008160E4
:1006B00080937A0080917A00806880937A0010920B
:1006C000C100E0914101F091420182E08083E0911C
:1006D0003D01F0913E011082E0913F01F091400117
:1006E0008FEC808310924901E0914501F091460121
:1006F00086E08083E0914301F09144018081806134
:100700008083E0914301F09144018081886080837F
:10071000E0914301F0914401808180688083E09101
:100720004301F091440180818F7D808361E081E00D
:100730000E94190261E082E00E94190261E084E0F7
:100740000E94190261E088E00E94190261E08AE0DB
:100750000E94190260E084E00E94EB0160E08AE000
:100760000E94EB0160E08EE00E94190260E08FE0E1
:100770000E94190261E082E00E941902C0E0D0E00C
:100780008EE00E94C2017C018FE00E94C201880FAE
:10079000991F8E299F299C01215031092230310552
:1007A00008F042C09093300180932F0110922E01E7
:1007B00010922D0180912D0190912E0120912F01F9
:1007C000309130012230310509F041C061E0893BB0
:1007D0009B400CF460E082E00E94EB0182E191E03A
:1007E0000E946F0289E191E00E946F0282E291E033
:1007F0000E946F020E944A026B017C010E944A0221
:100800006C197D098E099F09683E73408105910529
:10081000A8F3209709F4B4CF0E94F600882309F4C6
:10082000AFCF0E940000ACCF20912D0130912E015E
:100830002F5F3F4F30932E0120932D012F31310533
:100840000CF4B8CF9093300180932F01B3CF60E0C8
:10085000893B9B400CF461E082E00E94EB018CE15B
:1008600091E0BECFE1E3F1E01382128288EE93E0E3
:10087000A0E0B0E084839583A683B78384E091E011
:100880009183808385EC90E09587848784EC90E069
:100890009787868780EC90E0918B808B81EC90E04D
:1008A000938B828B82EC90E0958B848B86EC90E02E
:1008B000978B868B118E128E138E148E0895EE0FE9
:0E08C000FF1F0590F491E02D0994F894FFCFEE
:1008CE00000000002C018C00B9007901EA00C8007C
:1008DE00DC007779736F6B6F000D0A006E69736BB6
:0408EE006F0009008E
:00000001FF
